:100000000C9471000C9499000C9499000C94990034
:100010000C9499000C9499000C9499000C949900FC
:100020000C9499000C9499000C9499000C949900EC
:100030000C9499000C945A140C9499000C94990007
:100040000C9402090C9499000C9496060C94C80622
:100050000C9499000C9499000C9499000C949900BC
:100060000C9483170C9499000D0A3E3E205765614D
:10007000746865722053746174696F6E2076312ED6
:100080003000000000080002010000030407000027
:10009000000000000000010204081020408001025E
:1000A00004081020010204081020040404040404BD
:1000B000040402020202020203030303030300001A
:1000C0000000230026002900000000002500280071
:1000D0002B0000000000240027002A004703F80638
:1000E000801611241FBECFEFD8E0DEBFCDBF12E0D7
:1000F000A0E0B1E0ECE3F6E302C005900D92A43578
:10010000B107D9F724E0A4E5B2E001C01D92AA34FA
:10011000B207E1F710E0C1E7D0E004C02197FE018B
:100120000E94071BCE36D107C9F70E9426070C9400
:100130001C1B0C94000040915C0250915D02609188
:100140005E0270915F024F5F5F4F6F4F7F4F409332
:100150005C0250935D0260935E0270935F02809137
:100160000001882399F08091580290915902A09142
:100170005A02B0915B020196A11DB11D80935802F5
:1001800090935902A0935A02B0935B028091580257
:1001900090915902A0915A02B0915B02883E93401F
:1001A000A105B10568F01092580210925902109200
:1001B0005A0210925B021092000181E08093D502F6
:1001C00080910001833021F128F4813041F08230A8
:1001D00099F00895843079F18530C9F1089510922D
:1001E000D4021092D3021092580210925902109227
:1001F0005A0210925B0213C01A9933C010925C022B
:1002000010925D0210925E0210925F0283E027C09E
:10021000423051056105710521F51A9B02C082E04B
:100220001EC08091D3029091D40201969093D40283
:100230008093D30213C01A9B14C010925C021092D8
:100240005D0210925E0210925F0285E008C04230AB
:1002500051056105710529F41A99E1CF84E0809375
:100260000001089548E853E160E070E080E893E021
:100270000E94E9142FEF3FEFA9016BE970E080E8DD
:1002800093E00C94F9140F931F938BEB92E09093EF
:10029000BA028093B90226E040E056E960E070E0DF
:1002A00086ED92E00E942E0668E670E086ED92E010
:1002B0000E94A50780E692E00E944D0E811107C0C2
:1002C00062E871E086ED92E00E94B707FFCF6BE92C
:1002D00071E086ED92E00E94B70706E813E020E0A7
:1002E00040E061E083E992E00E94FC12811107C0C6
:1002F00066EB71E086ED92E00E94B707FFCF61EDFB
:1003000071E086ED92E00E94B7070E9432016CEE28
:1003100071E086ED92E00E94B70760E072E086ED42
:1003200092E00E94B707E091B902F091BA021482FC
:1003300015821682178210821182128213821F91F7
:100340000F910895CF93DF9380E692E00E94560EBE
:10035000C091B902D091BA0226E636E646EE5FE3D6
:100360000E94E50420E030E040E052E40E945003A7
:10037000688779878A879B8780E692E00E94EE10E3
:10038000688B798B8A8B9B8B80E692E00E94ED0EC6
:10039000C091B902D091BA0220E030E048EC52E4BA
:1003A0000E94C1032DEE33ED41EF5CE30E94E504B2
:1003B0006C8B7D8B8E8B9F8BDF91CF910895CF932C
:1003C000DF93C091B902D091BA0283E992E00E9412
:1003D000F2136C877D878E879F87C091B902D09179
:1003E000BA0220E030E0A9016C857D858E859F856D
:1003F0000E94BC0387FF04C01C861D861E861F86C4
:10040000DF91CF91089562E072E086ED92E00E9464
:100410009807409154025091550260915602709194
:100420005702DB01CA010196A11DB11D8093540240
:1004300090935502A0935602B09357022AE030E001
:1004400086ED92E00E94120866E072E086ED92E08E
:100450000E949807E091B902F091BA024085518557
:100460006285738522E030E086ED92E00E9400090B
:100470006AE072E086ED92E00E949807E091B9028E
:10048000F091BA02408951896289738922E030E093
:1004900086ED92E00E9400096EE072E086ED92E047
:1004A0000E949807E091B902F091BA0244895589F7
:1004B0006689778922E030E086ED92E00E940009AB
:1004C00062E172E086ED92E00E949807E091B90245
:1004D000F091BA02408151816281738122E030E063
:1004E00086ED92E00E94000966E172E086ED92E0FE
:1004F0000E949807E091B902F091BA0244815581B7
:100500006681778122E030E086ED92E00E9400096A
:100510006AE172E086ED92E00E949807E091B902EC
:10052000F091BA02448555856685778522E030E0F2
:1005300086ED92E00E9400096EE172E086ED92E0A5
:100540000C94B707CF92DF92EF92FF920F931F9315
:10055000CF93DF938EE00E94E809BC01990F880BCE
:10056000990B0E9435042AE939E949E950E40E94CF
:10057000E50420E030E040E85AE30E94E5046B0126
:100580007C0101E411E0C0E0D0E0F80161917191DB
:10059000819191918F012AE037ED43EA5CE30E945B
:1005A0004F039B01AC01C701B6010E94BC031816A2
:1005B0002CF42196C031D10541F702C0209709F0F3
:1005C0002197CC0FDD1FCC0FDD1FCF5FDE4F888161
:1005D0009981AA81BB81E091B902F091BA0284832A
:1005E0009583A683B783DF91CF911F910F91FF90E1
:1005F000EF90DF90CF900895F8948091D30290917E
:10060000D40278940895F89481E0809300011092C8
:10061000D50278940895F8948091D502789408953D
:10062000CF93DF930E9403030E940B038823E1F31F
:100630000E94FC02C091B902D091BA02BC0180E0D4
:1006400090E00E9433042BED39EF4EEB5FE30E9404
:10065000E50420E030E040EA50E40E94C1036883F2
:1006600079838A839B8381E0DF91CF9108950E94F3
:10067000A2010E94DF010E9410030E94A2020E94B8
:10068000030264EF71E080E090E00C94710983E96B
:1006900092E00E94F31180E692E00C94ED0A50582B
:1006A000BB27AA270E9467030C94AB040E949D04F9
:1006B00038F00E94A40420F039F49F3F19F426F486
:1006C0000C949A040EF4E095E7FB0C949404E92F43
:1006D0000E94BC0458F3BA17620773078407950792
:1006E00020F079F4A6F50C94DE040EF4E0950B2EC0
:1006F000BA2FA02D0B01B90190010C01CA01A00174
:100700001124FF27591B99F0593F50F4503E68F1CE
:100710001A16F040A22F232F342F4427585FF3CF0F
:10072000469537952795A795F0405395C9F77EF4E0
:100730001F16BA0B620B730B840BBAF09150A1F029
:10074000FF0FBB1F661F771F881FC2F70EC0BA0FAF
:10075000621F731F841F48F4879577956795B79537
:10076000F7959E3F08F0B0CF9395880F08F0992732
:10077000EE0F9795879508950E94700408F481E024
:1007800008950E94D5030C94AB040E94A40458F071
:100790000E949D0440F029F45F3F29F00C949404DA
:1007A00051110C94DF040C949A040E94BC0468F369
:1007B0009923B1F3552391F3951B550BBB27AA271A
:1007C00062177307840738F09F5F5F4F220F331F54
:1007D000441FAA1FA9F335D00E2E3AF0E0E832D01C
:1007E00091505040E695001CCAF72BD0FE2F29D01F
:1007F000660F771F881FBB1F261737074807AB07F1
:10080000B0E809F0BB0B802DBF01FF2793585F4F65
:100810003AF09E3F510578F00C9494040C94DF0458
:100820005F3FE4F3983ED4F3869577956795B79547
:10083000F7959F5FC9F7880F911D9695879597F952
:100840000895E1E0660F771F881FBB1F62177307CB
:100850008407BA0720F0621B730B840BBA0BEE1FE0
:1008600088F7E0950895E89409C097FB3EF49095C9
:100870008095709561957F4F8F4F9F4F9923A9F079
:10088000F92F96E9BB279395F69587957795679508
:10089000B795F111F8CFFAF4BB0F11F460FF1BC04C
:1008A0006F5F7F4F8F4F9F4F16C0882311F096E9DF
:1008B00011C0772321F09EE8872F762F05C066238D
:1008C00071F096E8862F70E060E02AF09A95660F46
:1008D000771F881FDAF7880F9695879597F90895FF
:1008E000990F0008550FAA0BE0E8FEEF1616170641
:1008F000E807F907C0F012161306E407F50798F0A9
:10090000621B730B840B950B39F40A2661F0232BC1
:10091000242B252B21F408950A2609F4A140A6953D
:100920008FEF811D811D089597F99F6780E870E022
:1009300060E008959FEF80EC089500240A94161655
:10094000170618060906089500240A9412161306BD
:10095000140605060895092E0394000C11F488234B
:1009600052F0BB0F40F4BF2B11F460FF04C06F5F67
:100970007F4F8F4F9F4F089557FD9058440F551F3D
:1009800059F05F3F71F04795880F97FB991F61F011
:100990009F3F79F087950895121613061406551F88
:1009A000F2CF4695F1DF08C0161617061806991FF4
:1009B000F1CF86957105610508940895E894BB27E9
:1009C00066277727CB0197F908950E94F8040C94C5
:1009D000AB040E949D0438F00E94A40420F09523EB
:1009E00011F00C9494040C949A0411240C94DF04D8
:1009F0000E94BC0470F3959FC1F3950F50E0551F02
:100A0000629FF001729FBB27F00DB11D639FAA2763
:100A1000F00DB11DAA1F649F6627B00DA11D661FB2
:100A2000829F2227B00DA11D621F739FB00DA11DD3
:100A3000621F839FA00D611D221F749F3327A00D8D
:100A4000611D231F849F600D211D822F762F6A2F29
:100A500011249F5750409AF0F1F088234AF0EE0F8E
:100A6000FF1FBB1F661F771F881F91505040A9F7BB
:100A70009E3F510580F00C9494040C94DF045F3F7A
:100A8000E4F3983ED4F3869577956795B795F795F7
:100A9000E7959F5FC1F7FE2B880F911D969587956F
:100AA00097F90895FC01918D228D892F90E0805C4B
:100AB0009F4F821B91098F7399270895FC01918D97
:100AC000828D981731F0828DE80FF11D858D90E0B1
:100AD00008958FEF9FEF0895FC01918D828D9817F7
:100AE00061F0828DDF01A80FB11D5D968C91928D12
:100AF0009F5F9F73928F90E008958FEF9FEF08950F
:100B0000FC01538D448D252F30E0842F90E0821B13
:100B1000930B541710F0CF960895019708958EEE19
:100B200096E0892B49F080E090E0892B29F00E9423
:100B3000EE0681110C9400000895FC01848DDF0104
:100B4000A80FB11DA35ABF4F2C91848D90E0019640
:100B50008F739927848FA689B7892C93A089B1892F
:100B60008C91837080648C93938D848D981306C0D0
:100B70000288F389E02D80818F7D80830895EF9234
:100B8000FF920F931F93CF93DF93EC0181E0888F47
:100B90009B8D8C8D981305C0E889F989808185FD2E
:100BA00026C0F62E0B8D10E00F5F1F4F0F7311271D
:100BB000E02E8C8DE8120CC00FB607FCFACFE88946
:100BC000F989808185FFF5CFCE010E949D05F1CF87
:100BD0008B8DFE01E80FF11DE35AFF4FF0829FB7A6
:100BE000F8940B8FEA89FB89808180620AC09FB7E5
:100BF000F894EE89FF896083E889F98980818370A0
:100C0000806480839FBF81E090E0DF91CF911F914E
:100C10000F91FF90EF900895CF93DF93EC01888DB3
:100C20008823C9F0EA89FB89808185FD05C0A889F0
:100C3000B9898C9186FD0FC00FB607FCF5CF808176
:100C400085FFF2CFA889B9898C9185FFEDCFCE01C0
:100C50000E949D05E7CFDF91CF910895CF92DF925B
:100C6000EF92FF921F93CF93DF93EC016A017B0118
:100C7000122FE889F98982E080834115514E610580
:100C80007105B1F060E079E08DE390E0A701960195
:100C90000E944D19DA01C9010197A109B109B69560
:100CA000A795979587959C01211580E13807A8F0B5
:100CB000E889F989108260E874E88EE190E0A70184
:100CC00096010E944D19DA01C9010197A109B109E4
:100CD000B695A795979587959C01EC85FD85308302
:100CE000EE85FF852083188EEC89FD891083EA89C3
:100CF000FB89808180618083EA89FB8980818860AB
:100D00008083EA89FB89808180688083EA89FB8906
:100D100080818F7D8083DF91CF911F91FF90EF9035
:100D2000DF90CF90089580E090E008951F920F9299
:100D30000FB60F9211242F938F939F93EF93FF93EE
:100D4000E091E602F091E7028081E091EC02F091FF
:100D5000ED0282FD12C090818091EF028F5F8F7350
:100D60002091F002821751F0E091EF02F0E0EA5298
:100D7000FD4F958F8093EF0201C08081FF91EF912D
:100D80009F918F912F910F900FBE0F901F901895EC
:100D90001F920F920FB60F9211242F933F934F93F0
:100DA0005F936F937F938F939F93AF93BF93EF93D3
:100DB000FF9386ED92E00E949D05FF91EF91BF9118
:100DC000AF919F918F917F916F915F914F913F91E3
:100DD0002F910F900FBE0F901F90189586ED92E007
:100DE0000E94520521E0892B09F420E0822F08950A
:100DF000E6EDF2E01382128288EE93E0A0E0B0E02C
:100E000084839583A683B78385E292E09183808370
:100E100085EC90E09587848784EC90E097878687BF
:100E200080EC90E0918B808B81EC90E0938B828BB7
:100E300082EC90E0958B848B86EC90E0978B868B90
:100E4000118E128E138E148E089508950E94AD098E
:100E50000E9425070E944301CFE8D5E00E94370396
:100E60002097E1F30E948F05F9CFCF92DF92EF92A6
:100E7000FF920F931F93CF93DF936C017A018B0145
:100E8000C0E0D0E0CE15DF0581F0D8016D918D0175
:100E9000D601ED91FC910190F081E02DC6010995FC
:100EA000892B11F02196EECF7E01C701DF91CF9102
:100EB0001F910F91FF90EF90DF90CF9008956115F3
:100EC000710579F0FB0101900020E9F73197AF013E
:100ED000461B570BDC01ED91FC910280F381E02D64
:100EE000099480E090E00895EF92FF920F931F9392
:100EF000CF93DF938C017B01C0E0D0E0F701EC0FD2
:100F0000FD1F6491662361F0D801ED91FC91019081
:100F1000F081E02DC8010995892B11F02196EECFC3
:100F2000CE01DF91CF911F910F91FF90EF90089527
:100F30000C945F07DC01ED91FC910190F081E02DB4
:100F4000099463E372E00C945F070F931F93CF93B0
:100F5000DF93EC010E9474078C01CE010E94A1076F
:100F6000800F911FDF91CF911F910F9108950F93E3
:100F70001F93CF93DF93EC010E945F078C01CE019A
:100F80000E94A107800F911FDF91CF911F910F91B8
:100F900008958F929F92AF92BF92EF92FF920F931C
:100FA0001F93CF93DF93CDB7DEB7A1970FB6F89419
:100FB000DEBF0FBECDBF7C01FA01CB0119A22230EA
:100FC00008F42AE08E010F5D1F4F822E912CA12C78
:100FD000B12CBF01A50194010E944D19F901CA016C
:100FE000015011096A3010F4605D01C0695CD801DC
:100FF0006C93232B242B252B61F7B801C7010E948A
:101000005F07A1960FB6F894DEBF0FBECDBFDF918C
:10101000CF911F910F91FF90EF90BF90AF909F9055
:101020008F9008952115310541F4DC01ED91FC917B
:101030000190F081E02D642F09940C94C9079A0166
:10104000AB0160E070E00C9412087F928F929F9247
:10105000AF92BF92CF92DF92EF92FF920F931F93C6
:10106000CF93DF938C016A017B01722E9A01AB0151
:10107000C701B6010E943819882319F066E372E0AF
:1010800027C046015701E894B7F82FEF3FEF4FE72D
:101090005FE7C501B4010E94381981110DC02FEF1F
:1010A0003FEF4FE75FE7C501B4010E94BC0318168C
:1010B0001CF46AE372E00CC02FEF3FEF4FE75FE4F0
:1010C000C701B6010E943319181694F46EE372E05A
:1010D000C801DF91CF911F910F91FF90EF90DF90AA
:1010E000CF90BF90AF909F908F907F900C945F07B0
:1010F0002FEF3FEF4FE75FECC701B6010E94BC0343
:1011000087FDE4CF20E030E0A901C701B6010E94CD
:10111000BC0387FF0AC06DE2C8010E949A07EC0178
:10112000F7FAF094F7F8F09402C0C0E0D0E0B12CE8
:1011300060E070E080E09FE37B1441F020E030E06D
:1011400040E251E40E94C103B394F6CFA701960197
:101150000E9450036B017C010E94B0184B015C019E
:101160002AE0AB01BC01C8010E94C907C80FD91F02
:101170007720B9F1C501B4010E9433049B01AC0191
:10118000C701B6010E944F036B017C016EE2C801EA
:101190000E949A07C80FD91F20E030E040E251E4D6
:1011A000C701B6010E94E5044B015C010E94B01822
:1011B0006B017C014AE050E0C8010E941F08C80F83
:1011C000D91FB60180E090E00E9433049B01AC017E
:1011D000C501B4010E944F036B017C017A94711028
:1011E000DBCFCE01DF91CF911F910F91FF90EF9058
:1011F000DF90CF90BF90AF909F908F907F90089599
:101200000C9425081F920F920FB60F9211242F9362
:101210003F938F939F93AF93BF938091740390916B
:101220007503A0917603B09177033091730323E0A7
:10123000230F2D3720F40196A11DB11D05C026E80E
:10124000230F0296A11DB11D209373038093740395
:1012500090937503A0937603B093770380917803FE
:1012600090917903A0917A03B0917B030196A11D1F
:10127000B11D8093780390937903A0937A03B09380
:101280007B03BF91AF919F918F913F912F910F90D1
:101290000FBE0F901F9018953FB7F8948091780378
:1012A00090917903A0917A03B0917B0326B5A89B16
:1012B00005C02F3F19F00196A11DB11D3FBFBA2FE8
:1012C000A92F982F8827820F911DA11DB11DBC0148
:1012D000CD0142E0660F771F881F991F4A95D1F70D
:1012E00008958F929F92AF92BF92CF92DF92EF922A
:1012F000FF926B017C010E944C094B015C01C114FF
:10130000D104E104F10401F10E9484160E944C0909
:10131000DC01CB0188199909AA09BB09883E9340D1
:10132000A105B10560F321E0C21AD108E108F10876
:1013300088EE880E83E0981EA11CB11CC114D10454
:10134000E104F10419F7DBCFFF90EF90DF90CF902D
:10135000BF90AF909F908F900895789484B58260ED
:1013600084BD84B5816084BD85B5826085BD85B549
:10137000816085BDEEE6F0E0808181608083E1E8F8
:10138000F0E0108280818260808380818160808330
:10139000E0E8F0E0808181608083E1EBF0E0808133
:1013A00084608083E0EBF0E0808181608083EAE705
:1013B000F0E080818460808380818260808380818E
:1013C000816080838081806880831092C10008954D
:1013D0008E3008F08E502091810190E4299F900179
:1013E00011248770822B80937C0080917A00806426
:1013F00080937A0080917A0086FDFCCF80917800FE
:101400002091790090E0922B0895833081F028F4A8
:10141000813099F08230A1F008958730A9F08830AA
:10142000B9F08430D1F4809180008F7D03C0809129
:1014300080008F7780938000089584B58F7702C0F5
:1014400084B58F7D84BD08958091B0008F7703C0EF
:101450008091B0008F7D8093B0000895CF93DF938B
:1014600090E0FC01EA56FF4F2491FC01E655FF4F46
:101470008491882361F190E0880F991FFC01EE525E
:10148000FF4FC591D491FC01E853FF4FA591B49152
:10149000611109C09FB7F8948881209582238883C1
:1014A000EC912E230BC0623061F49FB7F8948881D1
:1014B000322F309583238883EC912E2B2C939FBF62
:1014C00006C08FB7F894E8812E2B28838FBFDF9159
:1014D000CF9108951F93CF93DF93282F30E0F90128
:1014E000EE57FF4F8491F901EA56FF4FD491F9016D
:1014F000E655FF4FC491CC23C1F0162F81110E94F5
:10150000050AEC2FF0E0EE0FFF1FE853FF4FA59107
:10151000B4919FB7F894111104C08C91D095D82341
:1015200002C0EC91DE2BDC939FBFDF91CF911F9126
:101530000895CF93DF93282F30E0F901EE57FF4F46
:101540008491F901EA56FF4FD491F901E655FF4F16
:10155000C491CC2391F081110E94050AEC2FF0E098
:10156000EE0FFF1FE254FF4FA591B491EC91ED23D4
:1015700081E090E021F480E002C080E090E0DF9123
:10158000CF91089520917E03222399F04FB7F894CC
:1015900020917E03213059F42DB320937C033DB379
:1015A00020917D03209523232DBB4FBF02C0409384
:1015B0007C038CBD9DBD089580917E03882361F0DE
:1015C0009FB7F89420917E0380917C03213019F419
:1015D0008DBB9FBF08958FBF0895FC018FEF838758
:1015E0008487858786870895CF92DF92EF92FF9256
:1015F0000F931F93CF93DF93FC0126852F3F39F480
:101600006EBD00000DB407FEFDCF8EB52BC0D62FEA
:101610008C0187E0E82EF12CC0E0CC24C394D12CBF
:10162000CC0F60E0F80186850E946A0AB6010E2C94
:1016300001C0660F0A94EAF76D23F80184850E94C1
:101640006A0A61E0F80186850E946A0AF8018585C8
:101650000E94990A892B09F0C160F1E0EF1AF108A4
:10166000F8F68C2FDF91CF911F910F91FF90EF90A3
:10167000DF90CF9008950F931F93CF93DF93EC01EA
:10168000162F042F8B858F3F09F56A8188819981F8
:101690000E94F41588819981DC01ED91FC91019003
:1016A000F081E02D612F099588819981DC01ED9110
:1016B000FC910190F081E02D602F0995888199813E
:1016C000DF91CF911F910F910C947D168E858F3FE6
:1016D00021F482E591E00E94C20A60E08B850E94BD
:1016E0006A0A612F6F77CE010E94F40A602FCE0143
:1016F0000E94F40A61E08B850E946A0A8E858F3F02
:1017000031F4DF91CF911F910F910C94DC0ADF919E
:10171000CF911F910F910895CF92EF920F93CF9396
:10172000DF93EC016295660F660F607C477027704F
:10173000822F880F880F880F262F242B282B29AB68
:10174000902F9295990F907E8AA98F71892B8AABE1
:101750008E2D8770880F880F880F98A9292F207CDD
:101760009C2D9770E22EE82AE92AE8AA402F4770BC
:1017700062EFCE010E943B0B98A9492F477060E2AF
:10178000469F90011124892F8695869586958770AE
:1017900068E0869FA0011124422B532B97FB9927C9
:1017A00090F9492B65EFCE010E943B0B99A9492F77
:1017B000477080E2489F90011124892F8695869575
:1017C0008695877068E0869FA0011124422B532BD9
:1017D0009295969596959370492B64EFCE01DF9183
:1017E000CF910F91EF90CF900C943B0B1F93CF9321
:1017F000DF93EC01162F8B858F3F21F56A8188815D
:1018000099810E94F41588819981DC01ED91FC9108
:101810000190F081E02D612F0995888199810E94C6
:101820007D1641E06A81888199810E9477168881BE
:101830009981DC01ED91FC910284F385E02D0995FD
:10184000182F1EC08E858F3F21F482E591E00E9403
:10185000C20A60E08B850E946A0A612F6068CE012F
:101860000E94F40A60E0CE010E94F40A182F61E0A1
:101870008B850E946A0A8E858F3F11F40E94DC0AD4
:10188000812FDF91CF911F9108950F931F93CF93D5
:10189000DF93EC01162F8B858F3F99F56A81888144
:1018A00099810E94F41588819981DC01ED91FC9168
:1018B0000190F081E02D612F0995888199810E9426
:1018C0007D1642E06A81888199810E94771688811D
:1018D0009981DC01ED91FC910284F385E02D09955D
:1018E000182F88819981DC01ED91FC910284F385A8
:1018F000E02D099520E030E0312F8901082B192BCC
:1019000028C08E858F3F21F482E591E00E94C20AB3
:1019100060E08B850E946A0A612F6068CE010E9498
:10192000F40A60E0CE010E94F40A082F60E0CE01C4
:101930000E94F40A202F30E0322F22278901082B41
:1019400061E08B850E946A0A8E858F3F11F40E94A8
:10195000DC0AC801DF91CF911F910F9108950E9479
:10196000450C98278927982708954F925F926F9288
:101970007F928F929F92AF92BF92CF92DF92EF921F
:10198000FF921F93CF93DF93EC01162F8B858F3F30
:1019900009F051C06A81888199810E94F41588817B
:1019A0009981DC01ED91FC910190F081E02D612F96
:1019B0000995888199810E947D1643E06A8188811A
:1019C00099810E94771688819981DC01ED91FC91C3
:1019D0000284F385E02D09952C01990F660877089C
:1019E000762C652C542C442488819981DC01ED915E
:1019F000FC910284F385E02D09956C01990FEE08A6
:101A0000FF08C428D528E628F72888249C2CAD2C6C
:101A1000BE2C88819981DC01ED91FC910284F385D3
:101A2000E02D09956C01990FEE08FF08C828D92808
:101A3000EA28FB2833C08E858F3F21F482E591E0B0
:101A40000E94C20A60E08B850E946A0A612F60686A
:101A5000CE010E94F40A60E0CE010E94F40AC82E72
:101A6000D12CE12CF12CFE2CED2CDC2CCC2460E0D4
:101A7000CE010E94F40AC82AFE2CED2CDC2CCC24CA
:101A800060E0CE010E94F40AC82A61E08B850E94C2
:101A90006A0A8E858F3F11F40E94DC0AC701B601E5
:101AA000DF91CF911F91FF90EF90DF90CF90BF908B
:101AB000AF909F908F907F906F905F904F90089520
:101AC0001F93CF93DF93EC0168E80E94AF0C988BD3
:101AD0008F876AE8CE010E94AF0C9A8B898B6CE8E5
:101AE000CE010E94AF0C9C8B8B8B6EE8CE010E94C6
:101AF000AF0C9E8B8D8B60E9CE010E94AF0C988F4E
:101B00008F8B62E9CE010E94AF0C9A8F898F64E9B6
:101B1000CE010E94AF0C9C8F8B8F66E9CE010E9494
:101B2000AF0C9E8F8D8F68E9CE010E94AF0C98A3F9
:101B30008F8F6AE9CE010E94AF0C9AA389A36CE94A
:101B4000CE010E94AF0C9CA38BA36EE9CE010E9434
:101B5000AF0C9EA38DA361EACE010E94F60B8FA36A
:101B600061EECE010E94AF0C99A788A763EECE016B
:101B70000E94F60B8AA764EECE010E94F60B182F86
:101B800065EECE010E94F60B90E1199F90011124A1
:101B90008F70282B3CA72BA766EECE010E94F60B78
:101BA000182F65EECE010E94F60B90E1199F90016F
:101BB000112490E044E0959587954A95E1F7822BB2
:101BC000932B9EA78DA767EECE010E94F60B8FA7E1
:101BD000DF91CF911F91089563EF0E94F60B817002
:101BE0000895CF92EF920F93CF93DF93EC018B8503
:101BF0008F3F29F4888199810E94E21518C061E025
:101C00000E946A0A61E08B850E942E0A8E858F3FB2
:101C100019F40E9424140BC061E00E942E0A61E0B6
:101C20008C850E942E0A60E08D850E942E0A60ED50
:101C3000CE010E94F60B803649F546EB60EECE01F0
:101C40000E943B0B6CE271E080E090E00E94710921
:101C5000CE010E94EC0D882329F064E670E080E05C
:101C600090E0F4CFCE010E94600DC12CE12C05E084
:101C700025E045E063E0CE010E948C0B64E670E055
:101C800080E090E00E94710981E001C080E0DF9176
:101C9000CF910F91EF90CF90089526E7FC0122831A
:101CA00026E833E0318320830C94F10D8F929F92CC
:101CB000AF92BF92CF92DF92EF92FF920F931F935A
:101CC000CF93DF93EC016AEF0E94B50C61157105AB
:101CD00020E88207910509F46FC00F85188920E07C
:101CE00030E0C72ED82EE92EFF24E7FCFA94C01A64
:101CF000D10AE20AF30ADC01CB0157E0B595A795BA
:101D0000979587955A95D1F7000F111F221F331F02
:101D10004C015D01801A910AA20AB30AA50194013F
:101D2000A989BA890E947A194B015C017BE0B594BC
:101D3000A794979487947A95D1F7A7019601C70144
:101D4000B6010E943D199B01AC01ECE05595479509
:101D500037952795EA95D1F7AB89BC890E947A1906
:101D6000DC01CB01FEE0B595A79597958795FA958F
:101D7000D1F7A5019401280F391F4A1F5B1F2F833C
:101D8000388749875A87A5E0B0E00E946F19DC01C7
:101D9000CB0180589F4FAF4FBF4F692F7A2F8B2FAA
:101DA000992787FD9A950E94350420E030E048ECA1
:101DB00052E40E94C10304C060E070E080EC9FE741
:101DC000DF91CF911F910F91FF90EF90DF90CF9017
:101DD000BF90AF909F908F9008952F923F924F9217
:101DE0005F926F927F928F929F92AF92BF92CF92AB
:101DF000DF92EF92FF920F931F93CF93DF93CDB7B4
:101E0000DEB76A970FB6F894DEBF0FBECDBF9A8FCC
:101E1000898F0E94560E67EF898D9A8D0E94B50CAE
:101E20006D877E878F87988B611571058048910536
:101E300009F4B3C1E98DFA8D87819085A185B285BA
:101E40006C017D01FF0CCC08DC2C76019C01AD01FE
:101E50006C2D7C2D8C2D9C2D345F414051096109E6
:101E600071098109910929833A834B835C836D83CE
:101E70007E838F83988759016A017B018C010E94C0
:101E8000821929873A874B875C876D8B7E8B8F8B76
:101E9000988FA98DBA8D58963C91589757962C914A
:101EA000932F990F990B492F592F692F792F892F2C
:101EB0000E9482190CE00E94B21A722E832E942E78
:101EC000252E362E672E582E492EE98DFA8D328D0D
:101ED000218D932F990F990BA984BA84CB84DC842C
:101EE000ED88FE880F89188D492F592F692F792F7A
:101EF000892F0E94821908E00E94CB1AA72CB82CC7
:101F0000C92CD22CE32CF62C052D142D0E94E91A95
:101F100070588F4F9F4FA98DBA8D55962D903C903C
:101F200056975101C12CD12CE12CF12C00E010E08E
:101F30000E94821901E20E94CB1A322E232E498B75
:101F40005A8B6B8B472E582E9C8BA0E00E94FB1A5D
:101F500009F428C1E98DFA8D30A1278D932F990FAF
:101F6000990BA984BA84CB84DC84ED88FE880F8920
:101F7000188D492F592F692F792F892F0E94821987
:101F800029873A874B87752E4B018C87692EA98D3F
:101F9000BA8D5E963C915E975D962C91932F990F2A
:101FA000990BA980BA80CB80DC80ED80FE800F8108
:101FB0001885492F592F692F792F892F0E9482194F
:101FC00001E10E94B21AA984BA84CB84D72C74018F
:101FD0000C85162D0E94E91A59016A017B0189833B
:101FE000192F4D855E856F85788984E07595679595
:101FF000579547958A95D1F780E090E0A0E1B0E051
:10200000841B950BA60BB70B3C014D01990C660880
:10201000762C43019C01AD01662D762D862D962DE3
:102020000FE10E94B21A49013A01B62FA72F8A8305
:102030009B83E98DFA8D348D238D932F990F990B06
:10204000492F592F692F792F892F03E20E94B21A45
:1020500009810E94E91A59016A017B018C019401EE
:10206000A3016B2F7A2F8A819B810E94F21AE5E3EC
:10207000AE2EFCE0BF2EC12CD12CE12CF12C00E0C7
:1020800010E00E948219A32CB22CC988DA88EB8850
:10209000F42C052D1C890E94DD1929833A834B837A
:1020A0005C836D837E838F8398870DE00E94CB1ABB
:1020B000922E832E742E652E562E472E382E292EC4
:1020C000A98DBA8D96963C91969795962C91932FC3
:1020D000990F990BA92CB82CC72CD62CE52CF42CD5
:1020E000032D122D492F592F692F792F892F0E94E7
:1020F00082190E94821909E10E94CB1AA980BA8034
:10210000CB80DC80ED80FE800F8118850E94E91A6B
:1021100019012A013B014C01E98DFA8D34A123A15B
:10212000932F990F990B492F592F692F792F892FA9
:102130000E94821903E10E94CB1A59016A017B01B6
:102140008C019101A201B301C4010E94E91A08E0C7
:102150000E94CB1A59016A017B01E82F192FA98D22
:10216000BA8D92963C91929791962C91932F990FBC
:10217000990B492F592F692F792F892F04E00E943D
:10218000B21A0E2F0E94E91A0E94DF1820E030E0F8
:1021900040E85BE30E94E50408C060E070E080EC8A
:1021A0009FE703C060E070E0CB016A960FB6F89439
:1021B000DEBF0FBECDBFDF91CF911F910F91FF907A
:1021C000EF90DF90CF90BF90AF909F908F907F90D7
:1021D0006F905F904F903F902F9008954F925F9235
:1021E0006F927F928F929F92AF92BF92CF92DF9227
:1021F000EF92FF92CF93DF93EC010E94560E6DEFAA
:10220000CE010E94450CA0E0B0E0811520E89207C5
:10221000A105B10509F4CDC08F809884A984BA8442
:102220003CE2931A31E0A30AB1083EE0880F991FFF
:10223000AA1FBB1F3A95D1F74BA55CA5052E000C34
:10224000660B770BE4E1440F551F661F771FEA9575
:10225000D1F76C017D01C41AD50AE60AF70AADA5CB
:10226000BEA5A50194010E947A19C61AD70AE80AE8
:10227000F90A40E4D40EE11CF11CFFE0F594E79468
:10228000D794C794FA95D1F7AAA5B0E0A501940117
:102290000E946F192B013C01ABE075946794579431
:1022A0004794AA95D1F750E8550E611C711CAFA553
:1022B0000A2E000CBB0BA50194010E947A19BAE00A
:1022C0009595879577956795BA95D1F7A301920172
:1022D0000E943D19DC01CB012AE0B595A7959795A1
:1022E00087952A95D1F79C01AD01405E5F4FA8A567
:1022F000B9A50E947A19DC01CB01905EAF4FBF4FA8
:10230000BC01CD013EE095958795779567953A9507
:10231000D1F7A70196010E943D196B017C014FE0A6
:1023200095958795779567954A95D1F79B01AC016F
:102330000E943D199B01AC0167E055954795379583
:1023400027956A95D1F7AFA1B0E00E946F19DC0123
:10235000CB0174E0B595A795979587957A95D1F7B8
:10236000A7019601281B390B4A0B5B0BDA01C90147
:1023700057FF03C080E090E0DC0181309105A105AA
:1023800039E1B30724F080E090E0A0E0B9E1BC01BE
:10239000CD012CE095958795779567952A95D1F78E
:1023A0000E94350420E030E040E85AE30E94E50452
:1023B00004C060E070E080EC9FE7DF91CF91FF9078
:1023C000EF90DF90CF90BF90AF909F908F907F90D5
:1023D0006F905F904F900895DC01ED91FC9101901A
:1023E000F081E02D0994FC018BE794E1AEE0B0E4CC
:1023F00082839383A483B58381E79DE3AAEABFE345
:1024000086839783A087B1878DEC9CECACE3B0E426
:1024100082879387A487B58782E598EBAEEDBFE30B
:1024200086879787A08BB18B86E09FE7AFEBBAE3F7
:10243000828B938BA48BB58B84EC9DECA9E2BBE3E0
:10244000868B978BA08FB18F13A212A20895FF9253
:102450000F931F93CF93DF93EC01F62E8A018CA18B
:102460009DA10E94E21560E170E08CA19DA10E94F7
:10247000FE158CA19DA1DC01ED91FC910190F081F4
:10248000E02D6F2D0995B80177278CA19DA10E94A1
:10249000EC11612F70E08CA19DA10E94EC118CA128
:1024A0009DA1DF91CF911F910F91FF900C947D160C
:1024B000FC0122A160FB20F922A342A153A160E00C
:1024C0000C9427121F93CF93DF93EC01162F862FC6
:1024D0008370982F9295990F907E8AA18F79892B7E
:1024E0008AA34AA15BA160E0CE010E9427121230AC
:1024F00099F028F4112351F0113059F004C0133031
:1025000071F0143079F01982188210C082E390E0E3
:102510000BC084E690E008C088EC90E005C080E93C
:1025200091E002C080E293E099838883DF91CF91AC
:102530001F910895FC0122A160FB24F922A342A16E
:1025400053A160E00C942712FC0122A160FB21F949
:1025500022A342A153A160E00C9427120F931F9372
:10256000CF93DF93EC01162F8CA19DA10E94E21561
:1025700060E170E08CA19DA10E94FE158CA19DA13F
:10258000DC01ED91FC910190F081E02D612F099526
:1025900060E08CA19DA10E94001642E050E060E145
:1025A00070E08CA19DA10E947A16823039F06AE019
:1025B00070E080E090E00E947109EFCF8CA19DA1B6
:1025C000DC01ED91FC910284F385E02D09958C01ED
:1025D0008CA19DA1DC01ED91FC910284F385E02D9D
:1025E000099520E030E0382FC901802B912BDF9135
:1025F000CF911F910F910895DF92EF92FF920F9369
:102600001F93CF93DF93EC01E62EF42ED22E1DA361
:102610000CA36CE00E94AE128632C1F41BA21AA277
:1026200061E0CE010E9458126D2DCE010E94A412CD
:102630006E2DCE010E9462126F2DCE010E949A1261
:1026400060E0CE010E94581281E001C080E0DF917D
:10265000CF911F910F91FF90EF90DF900895CF934E
:10266000DF93EC0160E00E94AE128AA39BA38695E3
:102670008170DF91CF9108952F923F924F925F9298
:102680006F927F928F929F92AF92BF92CF92DF9282
:10269000EF92FF920F931F93CF93DF93EC010E9471
:1026A0002F138823D1F08AA1837F84608AA34AA153
:1026B0005BA160E0CE010E9427126881798180E0F1
:1026C00090E00E9433042DEC3CEC4CE85FE30E9468
:1026D000E5040E94B0180E94710967E0CE010E94D3
:1026E000AE128C0169E0CE010E94AE121C016AE0BC
:1026F000CE010E94AE12BC0180E090E00E94330443
:102700004B015C016BE0CE010E94AE12BC0180E087
:1027100090E00E9433046B017C01B80180E090E0FE
:102720000E9433042B013C012A813B814C815D8155
:10273000C501B4010E94E5049B01AC01C301B201D3
:102740000E944F032B013C012E813F814885598512
:10275000C701B6010E94E5049B01AC01C301B201AF
:102760000E944F036A8F7B8F8C8F9D8FB10180E019
:1027700090E00E9433042B013C012A853B854C8567
:102780005D85C501B4010E94E5049B01AC01C30154
:10279000B2010E944F034B015C012E853F854889A1
:1027A0005989C701B6010E94E5049B01AC01C5012E
:1027B000B4010E944F036E8F7F8F88A399A3DF918E
:1027C000CF911F910F91FF90EF90DF90CF90BF902E
:1027D000AF909F908F907F906F905F904F903F90C1
:1027E0002F900895CF92DF92EF92FF92CF93DF93D5
:1027F000EC010E943C132A893B894C895D896A8DD2
:102800007B8D8C8D9D8D0E94E5046B017C012E8952
:102810003F89488D598D6E8D7F8D88A199A10E9429
:10282000E5049B01AC01C701B6010E94500320E002
:1028300030E040E05FE30E94E504DF91CF91FF903C
:10284000EF90DF90CF900895CF93CFB7F894809119
:102850007F03811127C0E4EBF0E08491E0EAF0E02F
:102860009491E82FF0E0EE0FFF1FEE52FF4FA5917D
:10287000B491EC91E92321F461E08AE00E946A0AB4
:1028800061E08AE00E942E0A8CB580618CBD8CB517
:1028900080648CBD61E08DE00E942E0A61E08BE0D7
:1028A0000E942E0A80917F038F5F80937F03CFBFAA
:1028B000CF9108951F920F920FB60F9211242F936C
:1028C0003F934F935F936F937F938F939F93AF93B8
:1028D000BF93EF93FF93E0918403F09185030995F3
:1028E000FF91EF91BF91AF919F918F917F916F91E8
:1028F0005F914F913F912F910F900FBE0F901F90BE
:102900001895FC01A3E0440F551F661F771FAA9579
:10291000D1F74115510581E06807710514F481E094
:102920000EC033E075956795579547953A95D1F761
:102930004115510581E0680771051CF482E082832E
:1029400031C023E075956795579547952A95D1F73E
:102950004115510581E06807710514F483E0EFCF5C
:1029600092E075956795579547959A95D1F74115DA
:10297000510581E06807710514F484E0E0CF82E03E
:1029800075956795579547958A95D1F785E0828328
:102990004115510581E06807710524F04FEF5FEFA5
:1029A00060E070E08FB78383F89451834083509345
:1029B00087004093860083818FBF80918100887F4C
:1029C00080938100909181008281892B8093810086
:1029D00008951092800020E1209381000C948114CE
:1029E000E1E8F0E02081DC0112968C91822B80835B
:1029F00008950F931F93CF93DF93EC018B01BA01DE
:102A0000A901141615061606170614F40E9481145F
:102A10001D830C8381E080936F00CE01DF91CF9105
:102A20001F910F910C94F0148091BA0390E02091C3
:102A3000BB03821B910908959091BB038091BA0357
:102A4000981750F4E92FF0E0E454FC4F208130E077
:102A50009F5F9093BB0302C02FEF3FEFC901089522
:102A6000E091BB038091BA03E81730F4F0E0E4543E
:102A7000FC4F808190E008958FEF9FEF08950895B7
:102A8000CF93DF93EC01E0919203F09193033097A1
:102A9000F1F09091BB038091BA039817C0F090E0D9
:102AA000292F30E02617370754F4DE01A20FB31F99
:102AB0004C91D901A454BC4F4C939F5FF1CF10921D
:102AC000BB036093BA03CB01DF91CF910994DF91EF
:102AD000CF910895E0919403F0919503309729F0F8
:102AE000109298031092970309940895CF92DF9261
:102AF000EF92FF920F931F93CF93DF937C01CB0153
:102B00008A0120919603222389F0EB016B01C40E08
:102B1000D51ECC15DD0569F06991D701ED91FC91C9
:102B20000190F081E02DC7010995F3CF642F0E9439
:102B30004117C801DF91CF911F910F91FF90EF9046
:102B4000DF90CF900895CF93DF931F92CDB7DEB77C
:102B50006983209196032223D1F02091970320329C
:102B600040F021E030E0FC013383228380E090E0FC
:102B700015C080919803E82FF0E0E756FC4F99814B
:102B800090838F5F809398038093970305C061E0E3
:102B9000CE0101960E94411781E090E00F90DF91F5
:102BA000CF910895FC011382128288EE93E0A0E099
:102BB000B0E084839583A683B78386E492E0918313
:102BC000808308951092BB031092BA031092980369
:102BD000109297030E9485168AE695E10E946E176F
:102BE00080E495E10C94691781E0809396036093EB
:102BF000B903109298031092970308950C94F4155A
:102C00000F93062F21E04091970369E973E08091CB
:102C1000B9030E94EB16109298031092970310923A
:102C200096030F9108954F925F926F927F92AF92A9
:102C3000BF92CF92EF92FF920F931F93CF93DF93A8
:102C40005C01F62ED42F28013901EE2021F10E94DB
:102C5000F415CE2DC43008F0C3E0C150C0F028E018
:102C6000C29FC0011124A301920104C0569547954B
:102C7000379527958A95D2F7CA01B901D501ED910B
:102C8000FC910190F081E02DC5010995E6CF60E04F
:102C9000C5010E9400164D2FD13208F040E22C2DC4
:102CA0006CEB73E08F2D0E94A3161092BB038093F0
:102CB000BA03DF91CF911F910F91FF90EF90CF90CA
:102CC000BF90AF907F906F905F904F900895CF929C
:102CD000EF920F931F93C22EE12C00E010E09801B9
:102CE0000E9413161F910F91EF90CF90089521E04D
:102CF0000C94671621E00C94671661E00C940016A2
:102D000086E893E00C94D21508951092490481E06E
:102D1000809347041092460461E082E10E946A0AAF
:102D200061E083E10E946A0AE9EBF0E080818E7F36
:102D3000808380818D7F808388E48093B80085E4E0
:102D40008093BC000895413208F043C0909149043B
:102D50009111FCCF91E090934904209347042FEF09
:102D60002093DC0310922104240F209320049093DD
:102D7000480490914804880F892B809348048091DF
:102D80004604813061F41092460480914804809397
:102D9000BB008091BC0083FDF8CF85EC01C085EEBF
:102DA0008093BC00809149048130E1F3809121043B
:102DB000841710F440912104A2E2B4E0962FFB01A5
:102DC0008E2F891B841718F48D918193F9CF842F4E
:102DD000089580E008950F93413208F04AC0909121
:102DE00049049111FCCF32E0309349040093470429
:102DF0003FEF3093DC031092210440932004562FC0
:102E0000A2E2B4E0FB013E2F351B341718F43191D8
:102E10003D93F9CF1092480430914804880F832BDA
:102E20008093480480914604813061F410924604F6
:102E3000809148048093BB008091BC0083FDF8CF53
:102E400085EC01C085EE8093BC00222321F08091A7
:102E500049048230D1F38091DC038F3F79F0809177
:102E6000DC03803241F08091DC03803331F094E068
:102E700005C091E003C092E001C093E0892F0F915B
:102E800008954091FE03262F30E0240F311D21329A
:102E90003105DCF4209149042430C9F4FC0180E0C0
:102EA00090E0861758F43091FE032191DC01A05088
:102EB000BC4FA30FB11D2C930196F3CF8091FE035D
:102EC000680F6093FE0380E0089581E0089582E03A
:102ED0000895909343048093420408959093450489
:102EE00080934404089585ED8093BC008091BC00DC
:102EF00084FDFCCF10924904089585EC8093BC00BA
:102F00001092490408951F920F920FB60F92112448
:102F10002F933F934F935F936F937F938F939F93E1
:102F2000AF93BF93EF93FF938091B900887F803672
:102F300009F49EC078F5883209F45DC090F48031C0
:102F400009F456C038F4882309F4F5C0883009F430
:102F50004FC0F5C0883109F44EC0803209F45FC01B
:102F6000EEC0803409F46AC058F4803309F457C0C5
:102F7000883309F0E4C08093DC030E947D17DFC032
:102F8000803509F44FC0883509F45DC0883409F0F4
:102F9000D6C0D3C0883909F4C4C0A8F4883709F46E
:102FA00067C038F4883609F463C0803709F460C01C
:102FB000C6C0883809F4B5C0803909F45FC08038CC
:102FC00009F0BDC05BC0803B09F483C038F4803A8F
:102FD00009F466C0883A09F47CC0B1C0803C09F4A9
:102FE000A4C0883C09F4A1C0883B09F487C0A7C0ED
:102FF0008091480410C0909121048091200498177A
:1030000070F5E091210481E08E0F80932104F0E0BF
:10301000EE5DFB4F80818093BB0085EC83C0809385
:10302000DC038BC0E091210481E08E0F80932104AA
:103030008091BB00F0E0EE5DFB4F80839091210416
:10304000809120046BC0E091210481E08E0F809379
:1030500021048091BB00F0E0EE5DFB4F8083809106
:10306000470481116AC081E08093460484EA5EC00F
:1030700083E0809349041092DD03CFCF8091DD037C
:10308000803208F04EC0E091DD0381E08E0F809326
:10309000DD038091BB00F0E0E252FC4F8083BDCFA6
:1030A0000E947D178091DD03803230F4E091DD03D2
:1030B000F0E0E252FC4F10826091DD0370E0E0919D
:1030C0004204F09143048EED93E009951092DD03E4
:1030D00036C084E0809349041092FF031092FE03EF
:1030E000E0914404F091450409958091FE0381111B
:1030F00005C081E08093FE0310920004E091FF037D
:1031000081E08E0F8093FF03F0E0E050FC4F808160
:103110008093BB009091FF038091FE03981708F401
:103120007CCF85E88093BC000AC085EC8093BC000E
:103130001092490404C01092DC030E947317FF919F
:10314000EF91BF91AF919F918F917F916F915F911F
:103150004F913F912F910F900FBE0F901F90189598
:103160000E94C40488F09F5798F0B92F9927B7514F
:10317000B0F0E1F0660F771F881F991F1AF0BA951B
:10318000C9F714C0B13091F00E94DE04B1E0089597
:103190000C94DE04672F782F8827B85F39F0B93F89
:1031A000CCF3869577956795B395D9F73EF49095CE
:1031B0008095709561957F4F8F4F9F4F089597FB36
:1031C00016F40E9423190C94E618E894F92F96EB54
:1031D000FF2381F0121613061406440B9395F695FF
:1031E00087957795679557954040FF23B9F71BC0A2
:1031F00099270895882351F49850D2F7872B762F7A
:10320000652F542F432F322F20E0B1F312161306EF
:103210001406440B88233AF09A95440F551F661FF5
:10322000771F881FCAF755234AF4440F551F11F41E
:1032300060FF04C06F5F7F4F8F4F9F4F880F969541
:10324000879597F90895909580957095609550951C
:103250004095309521953F4F4F4F5F4F6F4F7F4FB8
:103260008F4F9F4F08950E94700408F48FEF0895C8
:103270000E947004880B990B0895DB018F939F9334
:103280000E946F19BF91AF91A29F800D911DA39FC6
:10329000900DB29F900D11240895A1E21A2EAA1B41
:1032A000BB1BFD010DC0AA1FBB1FEE1FFF1FA217F6
:1032B000B307E407F50720F0A21BB30BE40BF50BF3
:1032C000661F771F881F991F1A9469F7609570957C
:1032D000809590959B01AC01BD01CF0108950E949E
:1032E0000D1BA59F900DB49F900DA49F800D911D67
:1032F00011240895B7FF0C946F190E946F19821B57
:10330000930B0895DF93CF931F930F939A9DF02D06
:10331000219FF00D8B9DF00D8A9DE02DF10D039FF7
:10332000F00D029FE00DF11D4E9DE00DF11D5E9D23
:10333000F00D4F9DF00D7F936F93BF92AF925F930F
:103340004F93D5010E940D1B8B01AC01D7010E9448
:103350000D1BEB01E80FF91FD6010E94D2192F9126
:103360003F91D6010E940D1BC60FD71FE81FF91F02
:10337000AF91BF910E94D2192F913F910E940D1BD6
:10338000C60FD71FE81FF91FD6010E940D1BE60FBD
:10339000F71F9801BE01CF0111240F911F91CF910A
:1033A000DF9108950E940D1B460F571FC81FD91F9C
:1033B00008F431960895689401C0E894F92FF12B30
:1033C00012F00C940F1AA0E0B0E0E9EEF9E10C94D1
:1033D000811A092E059422F40E946B1A112392F48B
:1033E000F0E80F26FFEFE094F09400951095B0946C
:1033F000C094D094A194BF0ACF0ADF0AEF0AFF0A53
:103400000F0B1F0B0E941A1A07FC0E946B1ACDB7F4
:10341000DEB7ECE00C949D1A689401C0E8948F929A
:103420009F92CF93DF930E941A1ADF91CF919F90C2
:103430008F90089588249924F401E401B0E49F93C7
:10344000AA279A158B049C04ED05FE05CF05D0072D
:10345000A10798F4AD2FDC2FCF2FFE2FE92D982C4C
:10346000892E982F872F762F652F542F432F322F99
:103470002227B85031F7BF9127C01B2EBF91BB2721
:10348000220F331F441F551F661F771F881F991F68
:10349000881C991CEE1FFF1FCC1FDD1FAA1FBB1F1E
:1034A0008A149B04EC05FD05CE05DF05A007B107D6
:1034B00048F08A189B08EC09FD09CE09DF09A00B2A
:1034C000B10B21601A94E1F62EF49401AF01BE0114
:1034D000CD01000C0895609570958095909530957C
:1034E0004095509521953F4F4F4F5F4F6F4F7F4F06
:1034F0008F4F9F4F08952F923F924F925F926F92FE
:103500007F928F929F92AF92BF92CF92DF92EF9273
:10351000FF920F931F93CF93DF93CDB7DEB7CA1BF4
:10352000DB0B0FB6F894DEBF0FBECDBF09942A881F
:10353000398848885F846E847D848C849B84AA84C7
:10354000B984C884DF80EE80FD800C811B81AA8154
:10355000B981CE0FD11D0FB6F894DEBF0FBECDBF1F
:10356000ED0108950F93083090F0982F872F762F54
:10357000652F542F432F322F22270850F4CF220FCC
:10358000331F441F551F661F771F881F991F0A95F9
:10359000B2F70F91089597FB10F8169400080F9357
:1035A000083098F00850232F342F452F562F672FBF
:1035B000782F892F902DF4CF05949795879577953F
:1035C000679557954795379527950A95AAF70F91CF
:1035D00008952A0D3B1D4C1D5D1D6E1D7F1D801F16
:1035E000911F08952A193B094C095D096E097F094D
:1035F000800B910B08950024A7FD00942A17300535
:103600004005500560057005800590050895EE0F92
:10361000FF1F0590F491E02D0994A29FB001B39F84
:10362000C001A39F700D811D1124911DB29F700DCB
:0C363000811D1124911D0895F894FFCF16
:10363C00010000E142000087420000B44200801DFE
:10364C00430000074300804A43000034430000B4A9
:10365C004100003442008077430000614300C0A861
:10366C004300000000004092430000874300809D0F
:10367C00430AD7A33E85EBD13E6666E63E52B81EA2
:10368C003F6666663FEC51983F3333B33FA470FD01
:10369C003F000010401F853B40B81E45401F855B16
:1036AC00408FC27540AE4781400AD79340C3F5980E
:1036BC0040013E3E20424D453238302073656E73DA
:1036CC006F722070726F626C656D003E3E20424DD1
:1036DC00453238302074656D702073656E736F726F
:1036EC0020696E6974003E3E2056454D4C3630378D
:1036FC00352073656E736F722070726F626C656DBE
:10370C00003E3E2056454D4C363037352055562020
:10371C0073656E736F7220696E6974003E3E20573C
:10372C00696E642073656E736F7220696E697400C4
:10373C00200040733A0020743A0020683A00207050
:10374C003A0020763A0020643A0020693A00202A98
:10375C000000000000BF05350780050C0652056C03
:10376C00055E050D0A006E616E00696E66006F766F
:10377C00660000000000A315761593063F1514157E
:04378C001C153015C3
:00000001FF
